:100000000C944A010C947B010C947B010C947B01B1
:100010000C947B010C947B010C947B010C947B0170
:100020000C947B010C947B010C947B010C947B0160
:100030000C947B010C947B010C947B010C947B0150
:100040000C947B010C947B010C947B010C947B0140
:100050000C947B010C947B010C947B010C94450463
:100060000C947B010C94B9040C948F040C947B01C8
:100070000C947B010C947B010C947B010C947B0110
:100080000C947B010C947B010C947B010C947B0100
:100090000C947B010C947B010C947B010C947B01F0
:1000A0000C947B010C947B010C947B010C947B01E0
:1000B0000C947B010C947B010C947B010C947B01D0
:1000C0000C947B010C947B010C947B010C947B01C0
:1000D0000C947B010C947B010C947B010C947B01B0
:1000E0000C947B010C940E040C94AE030C941F032F
:1000F0000C94C7030C9429030C94BD030C940703C0
:100100000C94F5030C9417030C94B9010C94EF04B0
:100110000C9404030C9413020C9425030C94EB032D
:100120000C9422040C9440040C9460020C94A603DA
:100130000C94F8020C941B030C942D030C943604BD
:100140000C94CD010C94D1030C94FC020C942C045F
:100150000C94FF030C9418040C94AA010C94330320
:100160000C9411030C94D9030C940D030C947D0191
:100170000C9400030C94B3030C94DB010C94370330
:100180000C94E6020C94E1030C94E10200002100BF
:10019000240027002A002D00300033000101000058
:1001A000040107010A0100002200250028002B009D
:1001B0002E003100340002010000050108010B018E
:1001C00005050505070508080808020202020A0AD3
:1001D00008080404040401010101010101010303F1
:1001E000030303030303040707070C0C0C0C0C0C9C
:1001F0000C0C0202020206060606060606060B0B99
:100200000B0B0B0B0B0B01021020200808102040D9
:1002100010204080020102010804020101020408CA
:100220001020408080402010080402018004020158
:1002300080402010080402010804020101020408A1
:1002400010204080010204081020408000000A0BAA
:1002500002090C0D0E080703040100000000000055
:10026000000000000000000000000000000000008E
:10027000000000000000000012111000000000004B
:10028000000000000000000000000000000000006E
:100290000000EF0411241FBECFEFD1E2DEBFCDBFBF
:1002A00000E00CBF12E0A0E0B2E0ECE6FCE000E011
:1002B0000BBF02C007900D92A231B107D9F722E01F
:1002C000A2E1B2E001C01D92A23CB207E1F711E049
:1002D000CAE4D1E000E006C021970109802FFE01A9
:1002E0000E942C06C934D10780E00807A9F70E94B4
:1002F00032050C9434060C940000AF92BF92CF925A
:10030000DF92EF92FF920F931F93CF93DF936C01D5
:100310007B018B01040F151FEB015E01AE18BF08B6
:10032000C017D10759F06991D601ED91FC91019068
:10033000F081E02DC6011995892B79F7C501DF9170
:10034000CF911F910F91FF90EF90DF90CF90BF90D2
:10035000AF900895FC01538D448D252F30E0842FFC
:1003600090E0821B930B541710F0CF9608950197DD
:100370000895FC01918D828D981761F0A28DAE0FCA
:10038000BF2FB11D5D968C91928D9F5F9F73928F51
:1003900090E008958FEF9FEF0895FC01918D828D7D
:1003A000981731F0828DE80FF11D858D90E008954A
:1003B0008FEF9FEF0895FC01918D228D892F90E0A2
:1003C000805C9F4F821B91098F73992708958BE161
:1003D00092E00E94DB0121E0892B09F420E0822FCA
:1003E0000895FC01A48DA80FB92FB11DA35ABF4FCA
:1003F0002C91848D90E001968F739927848FA68924
:10040000B7892C93A089B1898C91837080648C9377
:10041000938D848D981306C00288F389E02D808126
:100420008F7D80830895EF92FF920F931F93CF9358
:10043000DF93EC0181E0888F9B8D8C8D98131AC01F
:10044000E889F989808185FF15C09FB7F894EE8906
:10045000FF896083E889F989808183708064808363
:100460009FBF81E090E0DF91CF911F910F91FF90AE
:10047000EF900895F62E0B8D10E00F5F1F4F0F7356
:100480001127E02E8C8D8E110CC00FB607FCFACF11
:10049000E889F989808185FFF5CFCE010E94F101BD
:1004A000F1CFEB8DEC0FFD2FF11DE35AFF4FF082E2
:1004B0009FB7F8940B8FEA89FB8980818062CFCF48
:1004C000CF93DF93EC01888D8823B9F0AA89BB898B
:1004D000E889F9898C9185FD03C0808186FD0DC076
:1004E0000FB607FCF7CF8C9185FFF2CF808185FF97
:1004F000EDCFCE010E94F101E9CFDF91CF910895B8
:1005000080E090E0892B29F00E94E70181110E9490
:10051000000080E090E0892B49F080E090E0892B9A
:1005200029F00E94000081110E94000080E090E00C
:10053000892B49F080E090E0892B29F00E9400008F
:1005400081110E94000080E090E0892B49F080E05A
:1005500090E0892B29F00E94000081110C9400008A
:100560000895282F30E0F901E45BFD4F9491F901E3
:10057000EA5FFD4F449120543E4FF901249122231C
:1005800009F435C0992311F191509231F8F4E92F13
:10059000F0E08827E153FD4F8F4F0C942C060003A9
:1005A0000403E102F802FC02E60207030D03110353
:1005B00017031B031F0325032903E6022D0333033F
:1005C0003703809180008F7780938000E22FF0E0E6
:1005D000EE0FFF1FEA55FE4FA591B4918FB7F89427
:1005E000EC91611148C040954E234C938FBF089504
:1005F000809180008F7DE8CF80918000877FE4CF5D
:1006000084B58F7784BDE2CF84B58F7DFBCF809199
:10061000B0008F778093B000D9CF8091B0008F7DEC
:10062000F9CF809190008F7780939000CFCF809109
:1006300090008F7DF9CF80919000877FF5CF8091DA
:10064000A0008F778093A000C1CF8091A0008F7D04
:10065000F9CF8091A000877FF5CF809120018F771F
:1006600080932001B3CF809120018F7DF9CF8091BD
:100670002001877FF5CF4E2BB8CFCF93DF9390E04B
:10068000FC01EA5FFD4F249180549E4FFC01849150
:100690008823D1F090E0880F991FFC01E457FE4FAA
:1006A000A591B491FC01EA55FE4FC591D491611119
:1006B0000EC09FB7F8948C91E22FE0958E238C9317
:1006C0002881E223E8839FBFDF91CF9108958FB700
:1006D000F894EC91E22BEC938FBFF6CF1F93CF935E
:1006E000DF93182FEB0161E00E943D03209739F45E
:1006F00060E0812FDF91CF911F910C94B102CF3F29
:10070000D10511F461E0F5CFE12FF0E0E45BFD4F9E
:10071000E491E150E23108F0B3C0F0E08827EC56F4
:10072000FC4F8F4F0C942C06A603AE03B303BD03FE
:10073000C7034004D103D903E103EB03F503FF032F
:100740000E041804400422042C04360484B5806886
:1007500084BDC7BDDF91CF911F91089584B580629C
:1007600084BDC8BDF7CF80918000806880938000F1
:10077000D0938900C0938800EDCF80918000806283
:1007800080938000D0938B00C0938A00E3CF809148
:100790008000886080938000D0938D00C0938C008F
:1007A000D9CF8091B00080688093B000C093B3002F
:1007B000D1CF8091B00080628093B000C093B4002C
:1007C000C9CF80919000806880939000D093990069
:1007D000C0939800BFCF809190008062809390007A
:1007E000D0939B00C0939A00B5CF80919000886011
:1007F00080939000D0939D00C0939C00ABCF8091DC
:10080000A00080688093A0008091A0008F7B8093DF
:10081000A000D093A900C093A8009CCF8091A00015
:1008200080628093A000D093AB00C093AA0092CFC7
:100830008091A00088608093A000D093AD00C09309
:10084000AC0088CF80912001806880932001D093F4
:100850002901C09328017ECF80912001806280937E
:100860002001D0932B01C0932A0174CF80912001E5
:10087000886080932001D0932D01C0932C016ACF12
:10088000C038D1050CF03ECF33CF1F920F920FB678
:100890000F9211242F933F938F939F93AF93BF9306
:1008A0008091170290911802A0911902B0911A023A
:1008B0003091160223E0230F2D3758F50196A11D24
:1008C000B11D209316028093170290931802A093F3
:1008D0001902B0931A028091120290911302A09112
:1008E0001402B09115020196A11DB11D8093120250
:1008F00090931302A0931402B0931502BF91AF918D
:100900009F918F913F912F910F900FBE0F901F904D
:10091000189526E8230F0296A11DB11DD2CF1F9274
:100920000F920FB60F9211240BB60F922F933F9395
:100930004F935F936F937F938F939F93AF93BF93E7
:10094000EF93FF938BE192E00E94F101FF91EF9111
:10095000BF91AF919F918F917F916F915F914F91D7
:100960003F912F910F900BBE0F900FBE0F901F90D5
:1009700018951F920F920FB60F9211240BB60F927B
:100980002F938F939F93EF93FF93E0912B02F0911E
:100990002C028081E0913102F091320282FD1DC073
:1009A0009081809134028F5F8F732091350282177E
:1009B00041F0E0913402F0E0E55EFD4F958F8093C9
:1009C0003402FF91EF919F918F912F910F900BBE69
:1009D0000F900FBE0F901F9018958081F2CFEBE122
:1009E000F2E01382128288EE93E0A0E0B0E084830C
:1009F0009583A683B78384E092E09183808385EC1E
:100A000090E09587848784EC90E09787868780ECD8
:100A100090E0918B808B81EC90E0938B828B82ECC9
:100A200090E0958B848B86EC90E0978B868B118E73
:100A3000128E138E148EE8EBF2E082E0808384E065
:100A4000818389E0828386E0838386E3848387E0F1
:100A5000858388E086838AE087838CE0808787E3CC
:100A600081870895789484B5826084BD84B581605F
:100A700084BD85B5826085BD85B5816085BD809169
:100A80006E00816080936E001092810080918100E1
:100A900082608093810080918100816080938100D9
:100AA000809180008160809380008091B10084609B
:100AB0008093B1008091B00081608093B0008091FC
:100AC0009100826080939100809191008160809379
:100AD0009100809190008160809390008091A100AE
:100AE00082608093A1008091A10081608093A10029
:100AF0008091A00081608093A0008091210182609C
:100B00008093210180912101816080932101809156
:100B1000200181608093200180917A00846080931D
:100B20007A0080917A00826080937A0080917A00C6
:100B3000816080937A0080917A00806880937A0047
:100B40001092C100E0912B02F0912C0282E0808390
:100B5000E0912702F09128021082E0912902F091A1
:100B60002A0280E1808310923302E0912F02F091FB
:100B7000300286E08083E0912D02F0912E02808188
:100B800080618083E0912D02F0912E028081886047
:100B90008083E0912D02F0912E0280818068808315
:100BA000E0912D02F0912E0280818F7D808361E0A3
:100BB0008091B8020E943D0361E08091B9020E94D9
:100BC0003D0361E08091BA020E943D0360E08091A4
:100BD000BB020E943D0360E08091BC020E943D0385
:100BE00061E08091BD020E943D0361E08091BE0200
:100BF0000E943D0361E08091BF020E943D0360E0DE
:100C00008091C0020E943D0360E08091C1020E9479
:100C10003D0369E170E08091BA020E946E0361E0D9
:100C20008091B8020E94B10260E08091B9020E94F6
:100C3000B10269E170E08091BF020E946E0361E041
:100C40008091BD020E94B10260E08091BE020E94CC
:100C5000B1020E948002DDCFEE0FFF1F881F8BBF05
:0C0C60000790F691E02D1994F894FFCF56
:100C6C000000000013027D01AA016002DB01B90142
:020C7C00CD01A8
:00000001FF
