:100000000C9486000C94B7000C94B7000C94B700C5
:100010000C94B7000C94B7000C94B7000C94B70084
:100020000C94B7000C94B7000C94B7000C94B70074
:100030000C94B7000C94B7000C94B7000C94B70064
:100040000C94B7000C94B7000C94B7000C94B70054
:100050000C94B7000C94B7000C94B7000C949B025E
:100060000C94B7000C9465020C943B020C94B700FE
:100070000C94B7000C94B7000C94B7000C94B70024
:100080000C94B7000C94B7000C94B7000C94B70014
:100090000C94B7000C94B7000C94B7000C94B70004
:1000A0000C94B7000C94B7000C94B7000C94B700F4
:1000B0000C94B7000C94B7000C94B7000C94B700E4
:1000C0000C94B7000C94B7000C94B7000C94B700D4
:1000D0000C94B7000C94B7000C94B7000C94B700C4
:1000E0000C94B7000C9450010C94E5020C94E700BA
:1000F0000C940A010C94F6000C9418010C94DA0488
:100100000C949D010C94BA00E502DA0411241FBE80
:10011000CFEFD1E2DEBFCDBF00E00CBF22E0ACE10B
:10012000B2E001C01D92AD3CB207E1F712E0A0E0E1
:10013000B2E0E6E2FEE000E00BBF02C007900D92E5
:10014000AC31B107D9F710E0C5E8D0E000E006C057
:1001500021970109802FFE010E94E304C438D107D2
:1001600080E00807A9F70E945B030C9401070C9438
:1001700000000895AF92BF92CF92DF92EF92FF926C
:100180000F931F93CF93DF936C017B018B01040FBF
:10019000151FEB015E01AE18BF08C017D10759F05B
:1001A0006991D601ED91FC910190F081E02DC6019D
:1001B0001995892B79F7C501DF91CF911F910F9187
:1001C000FF90EF90DF90CF90BF90AF900895FC012B
:1001D000538D448D252F30E0842F90E0821B930BAC
:1001E000541710F0CF96089501970895FC01918D52
:1001F000828D981761F0A28DAE0FBF2FB11D5D9655
:100200008C91928D9F5F9F73928F90E008958FEFF6
:100210009FEF0895FC01918D828D981731F0828DAA
:10022000E80FF11D858D90E008958FEF9FEF089501
:10023000FC01918D228D892F90E0805C9F4F821B65
:1002400091098F739927089586E292E00E94180120
:1002500021E0892B09F420E0822F0895FC01A48D70
:10026000A80FB92FB11DA35ABF4F2C91848D90E0D8
:1002700001968F739927848FA689B7892C93A089BB
:10028000B1898C91837080648C93938D848D981345
:1002900006C00288F389E02D80818F7D80830895D8
:1002A000EF92FF920F931F93CF93DF93EC0181E0C6
:1002B000888F9B8D8C8D98131AC0E889F98980816D
:1002C00085FF15C09FB7F894EE89FF896083E889A0
:1002D000F98980818370806480839FBF81E090E092
:1002E000DF91CF911F910F91FF90EF900895F62E1F
:1002F0000B8D10E00F5F1F4F0F731127E02E8C8DB9
:100300008E110CC00FB607FCFACFE889F9898081FD
:1003100085FFF5CFCE010E942E01F1CFEB8DEC0FC2
:10032000FD2FF11DE35AFF4FF0829FB7F8940B8F1A
:10033000EA89FB8980818062CFCFCF93DF93EC0184
:10034000888D8823B9F0AA89BB89E889F9898C91BD
:1003500085FD03C0808186FD0DC00FB607FCF7CF79
:100360008C9185FFF2CF808185FFEDCFCE010E9479
:100370002E01E9CFDF91CF91089580E090E0892BA5
:1003800029F00E94240181110E94000080E090E089
:10039000892B49F080E090E0892B29F00E94000031
:1003A00081110E94000080E090E0892B49F080E0FC
:1003B00090E0892B29F00E94000081110E9400002A
:1003C00080E090E0892B49F080E090E0892B29F0D3
:1003D0000E94000081110C94000008953FB7F8942A
:1003E0008091210290912202A0912302B0912402D7
:1003F00026B5A89B05C02F3F19F00196A11DB11D80
:100400003FBFBA2FA92F982F8827BC01CD01620FBB
:10041000711D811D911D42E0660F771F881F991F76
:100420004A95D1F708950F931F93CF93DF93EC0173
:1004300088819981009759F02A813B8126173707D7
:1004400030F081E0DF91CF911F910F9108958B01E2
:100450006F5F7F4F0E941006009759F09983888341
:100460001B830A832C813D81232B59F7FC011082C9
:10047000E8CF80E0E7CF1F920F920FB60F921124C2
:100480000BB60F922F933F934F935F936F937F938E
:100490008F939F93AF93BF93EF93FF9386E292E086
:1004A0000E942E01FF91EF91BF91AF919F918F918B
:1004B0007F916F915F914F913F912F910F900BBE64
:1004C0000F900FBE0F901F9018951F920F920FB6AE
:1004D0000F9211240BB60F922F938F939F93EF934C
:1004E000FF93E0913602F09137028081E0913C0267
:1004F000F0913D0282FD1DC0908180913F028F5F8F
:100500008F7320914002821741F0E0913F02F0E0AA
:10051000EA5DFD4F958F80933F02FF91EF919F9190
:100520008F912F910F900BBE0F900FBE0F901F90C9
:1005300018958081F2CF1F920F920FB60F9211245F
:100540002F933F938F939F93AF93BF9380911D02FF
:1005500090911E02A0911F02B091200230911C02C6
:1005600023E0230F2D3758F50196A11DB11D2093CF
:100570001C0280931D0290931E02A0931F02B09351
:1005800020028091210290912202A0912302B09139
:1005900024020196A11DB11D809321029093220295
:1005A000A0932302B0932402BF91AF919F918F91AA
:1005B0003F912F910F900FBE0F901F90189526E836
:1005C000230F0296A11DB11DD2CF109229021092C5
:1005D000280288EE93E0A0E0B0E080932A02909396
:1005E0002B02A0932C02B0932D028AE092E090930C
:1005F00027028093260285EC90E09093330280934B
:10060000320284EC90E0909335028093340280ECC7
:1006100090E0909337028093360281EC90E09093C3
:1006200039028093380282EC90E090933B028093F1
:100630003A0286EC90E090933D0280933C02109247
:100640003F02109240021092410210924202109218
:10065000C4021092C3021092C6021092C5021092F8
:10066000C8021092C70270E060E083EC92E00E9442
:1006700013022091C3023091C402811113C02115CD
:10068000310519F0C9010E9487051092C402109229
:10069000C3021092C8021092C7021092C6021092B2
:1006A000C50208951092C8021092C7026AE172E072
:1006B000C9010C94FA06CF93DF9300D000D01F92AB
:1006C0001F92CDB7DEB7789484B5826084BD84B5BF
:1006D000816084BD85B5826085BD85B5816085BD3D
:1006E00080916E00816080936E00109281008091F5
:1006F000810082608093810080918100816080937D
:100700008100809180008160809380008091B100A1
:1007100084608093B1008091B00081608093B000CC
:10072000809191008260809391008091910081601E
:1007300080939100809190008160809390008091DF
:10074000A10082608093A1008091A10081608093CC
:10075000A1008091A00081608093A0008091210180
:100760008260809321018091210181608093210129
:100770008091200181608093200180917A008460C3
:1007800080937A0080917A00826080937A008091D1
:100790007A00816080937A0080917A0080688093EB
:1007A0007A001092C100E0913602F091370282E0A7
:1007B0008083E0913202F09133021082E0913402A2
:1007C000F091350280E1808310923E02E0913A027E
:1007D000F0913B0286E08083E0913802F09139028B
:1007E000808180618083E0913802F09139028081BC
:1007F00088608083E0913802F091390280818068BE
:100800008083E0913802F091390280818F7D80836E
:10081000772473941A8219821C821B821E821D8285
:1008200070E060E0CE0101960E94130229813A81B6
:10083000811160C02115310519F0C9010E94870599
:100840001A8219821E821D821C821B8286E292E01D
:100850000E941801181619064CF486E292E00E94D4
:10086000F6008B3309F04EC0709225028091C302CE
:100870009091C402009709F486C069817A8161155C
:10088000710509F47EC04091C5025091C6022D81C8
:100890003E814217530708F474C00E94FA068D8106
:1008A0009E819093C8028093C7021E821D82898117
:1008B0009A81009711F00E94870580912502882374
:1008C000B1F04091C7025091C8026091C30270918B
:1008D000C40286E292E00E94BA0042E050E068E181
:1008E00072E086E292E00E94BA00109225020E9415
:1008F000BD0190CF1E821D826AE172E0C9010E9493
:10090000FA06A4CF8F8318860D811E810F5F1F4FBB
:10091000B801CE0101960E941302882369F0298153
:100920003A818D819E81BE01695F7F4F820F931F47
:100930000E94FA061E830D830E94EE014B015C01AA
:100940008AE0C82ED12CE12CF12C0E94EE0168190E
:1009500079098A099B09683E734081059105A8F3CE
:1009600021E0C21AD108E108F10888EE880E83E080
:10097000981EA11CB11CC114D104E104F10429F793
:1009800065CF0E94870589819A819093C4028093E4
:10099000C3028B819C819093C6028093C5028D8196
:1009A0009E819093C8028093C7021A8219821C828A
:1009B0001B827BCF8091C3029091C402009711F0FB
:1009C0000C9487050895EE0FFF1F881F8BBF0790BB
:1009D000F691E02D19940F931F93CF93DF938230FC
:1009E000910510F482E090E0E091CB02F091CC020E
:1009F00030E020E0B0E0A0E0309799F42115310517
:100A000009F44AC0281B390B24303105D8F58A81F6
:100A10009B816115710589F1FB0193838283FE013E
:100A200011C0408151810281138148175907E0F0BC
:100A30004817590799F4109761F012960C93129782
:100A400013961C933296CF01DF91CF911F910F9196
:100A500008950093CB021093CC02F4CF21153105F9
:100A600051F04217530738F0A901DB019A01BD018B
:100A7000DF01F801C1CFEF01F9CF9093CC02809351
:100A8000CB02CDCFFE01E20FF31F81939193225051
:100A9000310939832883D7CF2091C9023091CA0206
:100AA000232B41F420910202309103023093CA02B9
:100AB0002093C902209100023091010221153105D5
:100AC00041F42DB73EB74091040250910502241B1A
:100AD000350BE091C902F091CA02E217F307A0F4C6
:100AE0002E1B3F0B2817390778F0AC014E5F5F4F84
:100AF0002417350748F04E0F5F1F5093CA024093EA
:100B0000C902819391939FCFF0E0E0E09CCFCF9317
:100B1000DF930097E9F0FC01329713821282A091D3
:100B2000CB02B091CC02ED0130E020E01097A1F4AF
:100B300020813181820F931F2091C9023091CA0216
:100B40002817390709F061C0F093CA02E093C9027F
:100B5000DF91CF910895EA01CE17DF07E8F54A81CA
:100B60005B819E0141155105B1F7E901FB83EA83E1
:100B700049915991C40FD51FEC17FD0761F480818D
:100B800091810296840F951FE90199838883828160
:100B900093819B838A83F0E0E0E012968D919C9193
:100BA00013970097B9F52D913C911197CD010296BD
:100BB000820F931F2091C9023091CA02281739076A
:100BC00039F6309751F51092CC021092CB02B093C7
:100BD000CA02A093C902BCCFD383C2834081518192
:100BE000840F951FC817D90761F44E5F5F4F888146
:100BF0009981480F591F518340838A819B81938338
:100C000082832115310509F0B0CFF093CC02E09337
:100C1000CB029ECFFD01DC01C0CF13821282D7CF61
:100C20004F925F926F927F928F929F92AF92BF92FC
:100C3000CF92DF92EF92FF920F931F93CF93DF93A8
:100C40008C01009799F4CB01DF91CF911F910F9107
:100C5000FF90EF90DF90CF90BF90AF909F908F90DC
:100C60007F906F905F904F900C94EB04FC01E60F27
:100C7000F71F9C0122503109E217F30708F4AEC0B8
:100C8000D901CD91DC911197C617D70720F1C53056
:100C9000D10578F0CE0104978617970750F0C61B50
:100CA000D70B2297C193D1936D937C93CF010E9470
:100CB0008705C801DF91CF911F910F91FF90EF90B1
:100CC000DF90CF90BF90AF909F908F907F906F906C
:100CD0005F904F9008955B01AC1ABD0A4C018C0ED9
:100CE0009D1EA091CB02B091CC02512C412CF12C35
:100CF000E12C109731F58091C9029091CA028815B4
:100D0000990509F05CC04616570608F058C0809156
:100D1000000290910102009741F48DB79EB7409177
:100D2000040250910502841B950BE817F90708F09F
:100D300055C0F093CA02E093C902F9017183608340
:100D4000B8CF8D919C91119712966C901297139633
:100D50007C901397A815B90559F56C0142E0C40EB3
:100D6000D11CCA14DB0420F1AC014A195B09DA0179
:100D70001296159780F06282738251834083D90165
:100D80006D937C93E114F10471F0D7011396FC93F9
:100D9000EE9312978ECF22968C0F9D1FF9019183AF
:100DA0008083F301EFCFF093CC02E093CB0281CFAD
:100DB0004816590608F42C017D01D3019ACFCB01C6
:100DC0000E94EB047C01009749F0AE01B8010E943B
:100DD000F106C8010E94870587016BCF10E000E093
:100DE00068CFFB01DC0102C001900D9241505040E0
:100DF000D8F70895FB01DC0101900D920020E1F786
:100E0000089510E0C5E8D0E000E006C0802FFE01A4
:100E10000E94E3042196011DC638D10780E008072F
:060E2000A9F7F894FFCFD2
:100E26000000CD028000000000005001BA00E7007B
:0C0E36009D011801F6000A010D0A0000E1
:00000001FF
